{
  "_format": "hh-sol-artifact-1",
  "contractName": "DutchAuction",
  "sourceName": "contracts/DutchAuction.sol",
  "abi": [
    {
      "inputs": [
        {
          "internalType": "uint256",
          "name": "_reservePrice",
          "type": "uint256"
        },
        {
          "internalType": "address",
          "name": "_judgeAddress",
          "type": "address"
        },
        {
          "internalType": "uint256",
          "name": "_numBlocksAuctionOpen",
          "type": "uint256"
        },
        {
          "internalType": "uint256",
          "name": "_offerPriceDecrement",
          "type": "uint256"
        }
      ],
      "stateMutability": "nonpayable",
      "type": "constructor"
    },
    {
      "inputs": [],
      "name": "bid",
      "outputs": [
        {
          "internalType": "address",
          "name": "",
          "type": "address"
        }
      ],
      "stateMutability": "payable",
      "type": "function"
    },
    {
      "inputs": [],
      "name": "finalize",
      "outputs": [],
      "stateMutability": "nonpayable",
      "type": "function"
    },
    {
      "inputs": [],
      "name": "finalized",
      "outputs": [
        {
          "internalType": "bool",
          "name": "",
          "type": "bool"
        }
      ],
      "stateMutability": "view",
      "type": "function"
    },
    {
      "inputs": [],
      "name": "judgeAddress",
      "outputs": [
        {
          "internalType": "address",
          "name": "",
          "type": "address"
        }
      ],
      "stateMutability": "view",
      "type": "function"
    },
    {
      "inputs": [],
      "name": "nop",
      "outputs": [
        {
          "internalType": "bool",
          "name": "",
          "type": "bool"
        }
      ],
      "stateMutability": "nonpayable",
      "type": "function"
    },
    {
      "inputs": [],
      "name": "numBlocksActionOpen",
      "outputs": [
        {
          "internalType": "uint256",
          "name": "",
          "type": "uint256"
        }
      ],
      "stateMutability": "view",
      "type": "function"
    },
    {
      "inputs": [],
      "name": "ownerAddress",
      "outputs": [
        {
          "internalType": "address payable",
          "name": "",
          "type": "address"
        }
      ],
      "stateMutability": "view",
      "type": "function"
    },
    {
      "inputs": [
        {
          "internalType": "uint256",
          "name": "refundAmount",
          "type": "uint256"
        }
      ],
      "name": "refund",
      "outputs": [],
      "stateMutability": "nonpayable",
      "type": "function"
    },
    {
      "inputs": [],
      "name": "winnerAddress",
      "outputs": [
        {
          "internalType": "address payable",
          "name": "",
          "type": "address"
        }
      ],
      "stateMutability": "view",
      "type": "function"
    }
  ],
  "bytecode": "0x60806040523480156200001157600080fd5b5060405162000c6638038062000c66833981810160405281019062000037919062000127565b8360038190555082600160006101000a81548173ffffffffffffffffffffffffffffffffffffffff021916908373ffffffffffffffffffffffffffffffffffffffff1602179055508160048190555080600581905550336000806101000a81548173ffffffffffffffffffffffffffffffffffffffff021916908373ffffffffffffffffffffffffffffffffffffffff160217905550436006819055506000600860006101000a81548160ff0219169083151502179055505050505062000205565b6000815190506200010a81620001d1565b92915050565b6000815190506200012181620001eb565b92915050565b600080600080608085870312156200013e57600080fd5b60006200014e8782880162000110565b94505060206200016187828801620000f9565b9350506040620001748782880162000110565b9250506060620001878782880162000110565b91505092959194509250565b6000620001a082620001a7565b9050919050565b600073ffffffffffffffffffffffffffffffffffffffff82169050919050565b6000819050919050565b620001dc8162000193565b8114620001e857600080fd5b50565b620001f681620001c7565b81146200020257600080fd5b50565b610a5180620002156000396000f3fe6080604052600436106100865760003560e01c80633c03d8be116100595780633c03d8be146101285780634bb278f3146101535780638f84aa091461016a578063b3f05b9714610195578063ed7a4e0b146101c057610086565b80631998aeef1461008b57806321e41eeb146100a9578063278ecde1146100d45780632e9c58bb146100fd575b600080fd5b6100936101eb565b6040516100a0919061082b565b60405180910390f35b3480156100b557600080fd5b506100be6103f3565b6040516100cb919061087c565b60405180910390f35b3480156100e057600080fd5b506100fb60048036038101906100f691906107c6565b6103f9565b005b34801561010957600080fd5b506101126105a2565b60405161011f9190610861565b60405180910390f35b34801561013457600080fd5b5061013d6105ab565b60405161014a919061082b565b60405180910390f35b34801561015f57600080fd5b506101686105d1565b005b34801561017657600080fd5b5061017f610754565b60405161018c9190610846565b60405180910390f35b3480156101a157600080fd5b506101aa610778565b6040516101b79190610861565b60405180910390f35b3480156101cc57600080fd5b506101d561078b565b6040516101e29190610846565b60405180910390f35b6000600860009054906101000a900460ff161561020757600080fd5b436004546006546102189190610897565b6102229190610947565b60055461022f91906108ed565b60035461023c9190610897565b34101561024857600080fd5b6001600860006101000a81548160ff021916908315150217905550600073ffffffffffffffffffffffffffffffffffffffff16600160009054906101000a900473ffffffffffffffffffffffffffffffffffffffff1673ffffffffffffffffffffffffffffffffffffffff1614156103825733600260006101000a81548173ffffffffffffffffffffffffffffffffffffffff021916908373ffffffffffffffffffffffffffffffffffffffff16021790555060008054906101000a900473ffffffffffffffffffffffffffffffffffffffff1673ffffffffffffffffffffffffffffffffffffffff166108fc349081150290604051600060405180830381858888f19350505050158015610361573d6000803e3d6000fd5b506001600860016101000a81548160ff0219169083151502179055506103cb565b33600260006101000a81548173ffffffffffffffffffffffffffffffffffffffff021916908373ffffffffffffffffffffffffffffffffffffffff160217905550346007819055505b600260009054906101000a900473ffffffffffffffffffffffffffffffffffffffff16905090565b60045481565b600860009054906101000a900460ff1680156104225750600860019054906101000a900460ff16155b801561043b5750600860029054906101000a900460ff16155b61044457600080fd5b600160009054906101000a900473ffffffffffffffffffffffffffffffffffffffff1673ffffffffffffffffffffffffffffffffffffffff163373ffffffffffffffffffffffffffffffffffffffff161461049e57600080fd5b600160009054906101000a900473ffffffffffffffffffffffffffffffffffffffff1673ffffffffffffffffffffffffffffffffffffffff16600260009054906101000a900473ffffffffffffffffffffffffffffffffffffffff1673ffffffffffffffffffffffffffffffffffffffff16141561051b57600080fd5b6001600860026101000a81548160ff021916908315150217905550600260009054906101000a900473ffffffffffffffffffffffffffffffffffffffff1673ffffffffffffffffffffffffffffffffffffffff166108fc829081150290604051600060405180830381858888f1935050505015801561059e573d6000803e3d6000fd5b5050565b60006001905090565b600160009054906101000a900473ffffffffffffffffffffffffffffffffffffffff1681565b600860009054906101000a900460ff1680156105fa5750600860019054906101000a900460ff16155b80156106135750600860029054906101000a900460ff16155b61061c57600080fd5b600160009054906101000a900473ffffffffffffffffffffffffffffffffffffffff1673ffffffffffffffffffffffffffffffffffffffff163373ffffffffffffffffffffffffffffffffffffffff1614806106c55750600260009054906101000a900473ffffffffffffffffffffffffffffffffffffffff1673ffffffffffffffffffffffffffffffffffffffff163373ffffffffffffffffffffffffffffffffffffffff16145b6106ce57600080fd5b6001600860016101000a81548160ff02191690831515021790555060008054906101000a900473ffffffffffffffffffffffffffffffffffffffff1673ffffffffffffffffffffffffffffffffffffffff166108fc6007549081150290604051600060405180830381858888f19350505050158015610751573d6000803e3d6000fd5b50565b60008054906101000a900473ffffffffffffffffffffffffffffffffffffffff1681565b600860019054906101000a900460ff1681565b600260009054906101000a900473ffffffffffffffffffffffffffffffffffffffff1681565b6000813590506107c081610a04565b92915050565b6000602082840312156107d857600080fd5b60006107e6848285016107b1565b91505092915050565b6107f88161098d565b82525050565b6108078161097b565b82525050565b6108168161099f565b82525050565b610825816109cb565b82525050565b600060208201905061084060008301846107fe565b92915050565b600060208201905061085b60008301846107ef565b92915050565b6000602082019050610876600083018461080d565b92915050565b6000602082019050610891600083018461081c565b92915050565b60006108a2826109cb565b91506108ad836109cb565b9250827fffffffffffffffffffffffffffffffffffffffffffffffffffffffffffffffff038211156108e2576108e16109d5565b5b828201905092915050565b60006108f8826109cb565b9150610903836109cb565b9250817fffffffffffffffffffffffffffffffffffffffffffffffffffffffffffffffff048311821515161561093c5761093b6109d5565b5b828202905092915050565b6000610952826109cb565b915061095d836109cb565b9250828210156109705761096f6109d5565b5b828203905092915050565b6000610986826109ab565b9050919050565b6000610998826109ab565b9050919050565b60008115159050919050565b600073ffffffffffffffffffffffffffffffffffffffff82169050919050565b6000819050919050565b7f4e487b7100000000000000000000000000000000000000000000000000000000600052601160045260246000fd5b610a0d816109cb565b8114610a1857600080fd5b5056fea26469706673582212202d895f3cac841379486d1fa227a53592bf119e47f3ca8bd563356253746fc37264736f6c63430008040033",
  "linkReferences": {},
  "deployedLinkReferences": {}
}